{
  "_format": "hh-sol-artifact-1",
  "contractName": "AITreasuryManager",
  "sourceName": "contracts/treasury-manager.sol",
  "abi": [
    {
      "inputs": [],
      "stateMutability": "nonpayable",
      "type": "constructor"
    },
    {
      "inputs": [],
      "name": "EnforcedPause",
      "type": "error"
    },
    {
      "inputs": [],
      "name": "ExpectedPause",
      "type": "error"
    },
    {
      "inputs": [
        {
          "internalType": "address",
          "name": "owner",
          "type": "address"
        }
      ],
      "name": "OwnableInvalidOwner",
      "type": "error"
    },
    {
      "inputs": [
        {
          "internalType": "address",
          "name": "account",
          "type": "address"
        }
      ],
      "name": "OwnableUnauthorizedAccount",
      "type": "error"
    },
    {
      "inputs": [],
      "name": "ReentrancyGuardReentrantCall",
      "type": "error"
    },
    {
      "inputs": [
        {
          "internalType": "address",
          "name": "token",
          "type": "address"
        }
      ],
      "name": "SafeERC20FailedOperation",
      "type": "error"
    },
    {
      "anonymous": false,
      "inputs": [
        {
          "indexed": true,
          "internalType": "address",
          "name": "user",
          "type": "address"
        },
        {
          "indexed": false,
          "internalType": "bool",
          "name": "enabled",
          "type": "bool"
        }
      ],
      "name": "AutomationRegistered",
      "type": "event"
    },
    {
      "anonymous": false,
      "inputs": [
        {
          "indexed": true,
          "internalType": "address",
          "name": "user",
          "type": "address"
        },
        {
          "indexed": false,
          "internalType": "uint256",
          "name": "amount",
          "type": "uint256"
        },
        {
          "indexed": false,
          "internalType": "uint256",
          "name": "newBalance",
          "type": "uint256"
        }
      ],
      "name": "Deposit",
      "type": "event"
    },
    {
      "anonymous": false,
      "inputs": [
        {
          "indexed": true,
          "internalType": "address",
          "name": "user",
          "type": "address"
        },
        {
          "indexed": false,
          "internalType": "uint256",
          "name": "amount",
          "type": "uint256"
        },
        {
          "indexed": false,
          "internalType": "uint256",
          "name": "timestamp",
          "type": "uint256"
        }
      ],
      "name": "Deposited",
      "type": "event"
    },
    {
      "anonymous": false,
      "inputs": [
        {
          "indexed": false,
          "internalType": "int256",
          "name": "fedRate",
          "type": "int256"
        },
        {
          "indexed": false,
          "internalType": "int256",
          "name": "inflation",
          "type": "int256"
        },
        {
          "indexed": false,
          "internalType": "int256",
          "name": "treasuryYield",
          "type": "int256"
        }
      ],
      "name": "EconomicDataUpdated",
      "type": "event"
    },
    {
      "anonymous": false,
      "inputs": [
        {
          "indexed": true,
          "internalType": "address",
          "name": "user",
          "type": "address"
        },
        {
          "indexed": false,
          "internalType": "string",
          "name": "action",
          "type": "string"
        },
        {
          "indexed": false,
          "internalType": "string",
          "name": "reason",
          "type": "string"
        }
      ],
      "name": "EmergencyAction",
      "type": "event"
    },
    {
      "anonymous": false,
      "inputs": [
        {
          "indexed": true,
          "internalType": "address",
          "name": "previousOwner",
          "type": "address"
        },
        {
          "indexed": true,
          "internalType": "address",
          "name": "newOwner",
          "type": "address"
        }
      ],
      "name": "OwnershipTransferred",
      "type": "event"
    },
    {
      "anonymous": false,
      "inputs": [
        {
          "indexed": false,
          "internalType": "address",
          "name": "account",
          "type": "address"
        }
      ],
      "name": "Paused",
      "type": "event"
    },
    {
      "anonymous": false,
      "inputs": [
        {
          "indexed": false,
          "internalType": "uint256",
          "name": "ousgPrice",
          "type": "uint256"
        },
        {
          "indexed": false,
          "internalType": "uint256",
          "name": "usdyPrice",
          "type": "uint256"
        },
        {
          "indexed": false,
          "internalType": "uint256",
          "name": "timestamp",
          "type": "uint256"
        }
      ],
      "name": "PricesUpdated",
      "type": "event"
    },
    {
      "anonymous": false,
      "inputs": [
        {
          "indexed": true,
          "internalType": "address",
          "name": "user",
          "type": "address"
        },
        {
          "indexed": false,
          "internalType": "uint256",
          "name": "oldOUSG",
          "type": "uint256"
        },
        {
          "indexed": false,
          "internalType": "uint256",
          "name": "newOUSG",
          "type": "uint256"
        },
        {
          "indexed": false,
          "internalType": "uint256",
          "name": "oldUSDY",
          "type": "uint256"
        },
        {
          "indexed": false,
          "internalType": "uint256",
          "name": "newUSDY",
          "type": "uint256"
        },
        {
          "indexed": false,
          "internalType": "string",
          "name": "reason",
          "type": "string"
        }
      ],
      "name": "Rebalanced",
      "type": "event"
    },
    {
      "anonymous": false,
      "inputs": [
        {
          "indexed": true,
          "internalType": "address",
          "name": "user",
          "type": "address"
        },
        {
          "indexed": false,
          "internalType": "string",
          "name": "riskType",
          "type": "string"
        },
        {
          "indexed": false,
          "internalType": "uint256",
          "name": "value",
          "type": "uint256"
        }
      ],
      "name": "RiskLimitTriggered",
      "type": "event"
    },
    {
      "anonymous": false,
      "inputs": [
        {
          "indexed": false,
          "internalType": "address",
          "name": "account",
          "type": "address"
        }
      ],
      "name": "Unpaused",
      "type": "event"
    },
    {
      "anonymous": false,
      "inputs": [
        {
          "indexed": true,
          "internalType": "address",
          "name": "user",
          "type": "address"
        },
        {
          "indexed": false,
          "internalType": "uint256",
          "name": "amount",
          "type": "uint256"
        },
        {
          "indexed": false,
          "internalType": "uint256",
          "name": "newBalance",
          "type": "uint256"
        }
      ],
      "name": "Withdrawal",
      "type": "event"
    },
    {
      "anonymous": false,
      "inputs": [
        {
          "indexed": true,
          "internalType": "address",
          "name": "user",
          "type": "address"
        },
        {
          "indexed": false,
          "internalType": "uint256",
          "name": "amount",
          "type": "uint256"
        },
        {
          "indexed": false,
          "internalType": "uint256",
          "name": "timestamp",
          "type": "uint256"
        }
      ],
      "name": "Withdrawn",
      "type": "event"
    },
    {
      "inputs": [
        {
          "internalType": "address",
          "name": "user",
          "type": "address"
        }
      ],
      "name": "adjustAllocationBasedOnEconomics",
      "outputs": [
        {
          "internalType": "uint256",
          "name": "suggestedOUSG",
          "type": "uint256"
        },
        {
          "internalType": "uint256",
          "name": "suggestedUSDY",
          "type": "uint256"
        }
      ],
      "stateMutability": "view",
      "type": "function"
    },
    {
      "inputs": [
        {
          "internalType": "uint256",
          "name": "proposalId",
          "type": "uint256"
        }
      ],
      "name": "approveProposal",
      "outputs": [],
      "stateMutability": "nonpayable",
      "type": "function"
    },
    {
      "inputs": [
        {
          "internalType": "uint256",
          "name": "",
          "type": "uint256"
        }
      ],
      "name": "auditLog",
      "outputs": [
        {
          "internalType": "address",
          "name": "user",
          "type": "address"
        },
        {
          "internalType": "string",
          "name": "action",
          "type": "string"
        },
        {
          "internalType": "uint256",
          "name": "amount",
          "type": "uint256"
        },
        {
          "internalType": "uint256",
          "name": "timestamp",
          "type": "uint256"
        },
        {
          "internalType": "bytes32",
          "name": "transactionHash",
          "type": "bytes32"
        }
      ],
      "stateMutability": "view",
      "type": "function"
    },
    {
      "inputs": [
        {
          "internalType": "address",
          "name": "",
          "type": "address"
        }
      ],
      "name": "automationRegistered",
      "outputs": [
        {
          "internalType": "bool",
          "name": "",
          "type": "bool"
        }
      ],
      "stateMutability": "view",
      "type": "function"
    },
    {
      "inputs": [
        {
          "internalType": "address[]",
          "name": "users",
          "type": "address[]"
        }
      ],
      "name": "batchRebalance",
      "outputs": [],
      "stateMutability": "nonpayable",
      "type": "function"
    },
    {
      "inputs": [],
      "name": "batchUpdatePrices",
      "outputs": [],
      "stateMutability": "nonpayable",
      "type": "function"
    },
    {
      "inputs": [
        {
          "internalType": "address",
          "name": "user",
          "type": "address"
        },
        {
          "internalType": "uint256",
          "name": "marketCondition",
          "type": "uint256"
        }
      ],
      "name": "calculateOptimalAllocation",
      "outputs": [
        {
          "internalType": "uint256",
          "name": "ousgPercent",
          "type": "uint256"
        },
        {
          "internalType": "uint256",
          "name": "usdyPercent",
          "type": "uint256"
        }
      ],
      "stateMutability": "view",
      "type": "function"
    },
    {
      "inputs": [
        {
          "internalType": "address",
          "name": "user",
          "type": "address"
        }
      ],
      "name": "calculatePortfolioRisk",
      "outputs": [
        {
          "internalType": "uint256",
          "name": "riskScore",
          "type": "uint256"
        }
      ],
      "stateMutability": "view",
      "type": "function"
    },
    {
      "inputs": [
        {
          "internalType": "address",
          "name": "user",
          "type": "address"
        }
      ],
      "name": "checkRebalanceNeeded",
      "outputs": [
        {
          "internalType": "bool",
          "name": "needed",
          "type": "bool"
        },
        {
          "internalType": "string",
          "name": "reason",
          "type": "string"
        },
        {
          "internalType": "uint256",
          "name": "suggestedOUSG",
          "type": "uint256"
        },
        {
          "internalType": "uint256",
          "name": "suggestedUSDY",
          "type": "uint256"
        }
      ],
      "stateMutability": "view",
      "type": "function"
    },
    {
      "inputs": [
        {
          "internalType": "address",
          "name": "user",
          "type": "address"
        }
      ],
      "name": "checkRiskLimits",
      "outputs": [
        {
          "internalType": "bool",
          "name": "withinLimits",
          "type": "bool"
        },
        {
          "internalType": "string",
          "name": "warning",
          "type": "string"
        }
      ],
      "stateMutability": "view",
      "type": "function"
    },
    {
      "inputs": [
        {
          "internalType": "bytes",
          "name": "checkData",
          "type": "bytes"
        }
      ],
      "name": "checkUpkeep",
      "outputs": [
        {
          "internalType": "bool",
          "name": "upkeepNeeded",
          "type": "bool"
        },
        {
          "internalType": "bytes",
          "name": "performData",
          "type": "bytes"
        }
      ],
      "stateMutability": "view",
      "type": "function"
    },
    {
      "inputs": [],
      "name": "contractPaused",
      "outputs": [
        {
          "internalType": "bool",
          "name": "",
          "type": "bool"
        }
      ],
      "stateMutability": "view",
      "type": "function"
    },
    {
      "inputs": [
        {
          "internalType": "uint256",
          "name": "amount",
          "type": "uint256"
        }
      ],
      "name": "depositUSDC",
      "outputs": [],
      "stateMutability": "nonpayable",
      "type": "function"
    },
    {
      "inputs": [
        {
          "internalType": "string",
          "name": "reason",
          "type": "string"
        }
      ],
      "name": "emergencyPauseWithReason",
      "outputs": [],
      "stateMutability": "nonpayable",
      "type": "function"
    },
    {
      "inputs": [],
      "name": "emergencyWithdraw",
      "outputs": [],
      "stateMutability": "nonpayable",
      "type": "function"
    },
    {
      "inputs": [
        {
          "internalType": "uint256",
          "name": "proposalId",
          "type": "uint256"
        }
      ],
      "name": "executeProposal",
      "outputs": [],
      "stateMutability": "nonpayable",
      "type": "function"
    },
    {
      "inputs": [
        {
          "internalType": "address",
          "name": "user",
          "type": "address"
        }
      ],
      "name": "executeRebalance",
      "outputs": [],
      "stateMutability": "nonpayable",
      "type": "function"
    },
    {
      "inputs": [
        {
          "internalType": "address",
          "name": "user",
          "type": "address"
        }
      ],
      "name": "forceRebalanceUser",
      "outputs": [],
      "stateMutability": "nonpayable",
      "type": "function"
    },
    {
      "inputs": [
        {
          "internalType": "bytes32",
          "name": "requestId",
          "type": "bytes32"
        },
        {
          "internalType": "int256",
          "name": "fedRate",
          "type": "int256"
        },
        {
          "internalType": "int256",
          "name": "inflationRate",
          "type": "int256"
        },
        {
          "internalType": "int256",
          "name": "treasuryYield",
          "type": "int256"
        }
      ],
      "name": "fulfillEconomicData",
      "outputs": [],
      "stateMutability": "nonpayable",
      "type": "function"
    },
    {
      "inputs": [
        {
          "internalType": "address",
          "name": "user",
          "type": "address"
        },
        {
          "internalType": "uint256",
          "name": "fromTime",
          "type": "uint256"
        },
        {
          "internalType": "uint256",
          "name": "toTime",
          "type": "uint256"
        }
      ],
      "name": "getAuditTrail",
      "outputs": [
        {
          "components": [
            {
              "internalType": "address",
              "name": "user",
              "type": "address"
            },
            {
              "internalType": "string",
              "name": "action",
              "type": "string"
            },
            {
              "internalType": "uint256",
              "name": "amount",
              "type": "uint256"
            },
            {
              "internalType": "uint256",
              "name": "timestamp",
              "type": "uint256"
            },
            {
              "internalType": "bytes32",
              "name": "transactionHash",
              "type": "bytes32"
            }
          ],
          "internalType": "struct AITreasuryManager.AuditEntry[]",
          "name": "",
          "type": "tuple[]"
        }
      ],
      "stateMutability": "view",
      "type": "function"
    },
    {
      "inputs": [],
      "name": "getAutomationQueue",
      "outputs": [
        {
          "internalType": "address[]",
          "name": "usersToRebalance",
          "type": "address[]"
        }
      ],
      "stateMutability": "view",
      "type": "function"
    },
    {
      "inputs": [
        {
          "internalType": "address",
          "name": "user",
          "type": "address"
        }
      ],
      "name": "getAutomationStatus",
      "outputs": [
        {
          "internalType": "bool",
          "name": "registered",
          "type": "bool"
        },
        {
          "internalType": "uint256",
          "name": "lastExecution",
          "type": "uint256"
        }
      ],
      "stateMutability": "view",
      "type": "function"
    },
    {
      "inputs": [],
      "name": "getContractTotalValue",
      "outputs": [
        {
          "internalType": "uint256",
          "name": "",
          "type": "uint256"
        }
      ],
      "stateMutability": "view",
      "type": "function"
    },
    {
      "inputs": [],
      "name": "getEconomicIndicators",
      "outputs": [
        {
          "internalType": "int256",
          "name": "fedRate",
          "type": "int256"
        },
        {
          "internalType": "int256",
          "name": "inflation",
          "type": "int256"
        },
        {
          "internalType": "int256",
          "name": "treasuryYield",
          "type": "int256"
        },
        {
          "internalType": "uint256",
          "name": "lastUpdate",
          "type": "uint256"
        }
      ],
      "stateMutability": "view",
      "type": "function"
    },
    {
      "inputs": [],
      "name": "getLastPriceUpdate",
      "outputs": [
        {
          "internalType": "uint256",
          "name": "ousgTime",
          "type": "uint256"
        },
        {
          "internalType": "uint256",
          "name": "usdyTime",
          "type": "uint256"
        }
      ],
      "stateMutability": "view",
      "type": "function"
    },
    {
      "inputs": [],
      "name": "getOUSGPrice",
      "outputs": [
        {
          "internalType": "uint256",
          "name": "price",
          "type": "uint256"
        },
        {
          "internalType": "uint256",
          "name": "decimals",
          "type": "uint256"
        }
      ],
      "stateMutability": "view",
      "type": "function"
    },
    {
      "inputs": [
        {
          "internalType": "address",
          "name": "user",
          "type": "address"
        }
      ],
      "name": "getRebalanceParameters",
      "outputs": [
        {
          "components": [
            {
              "internalType": "uint256",
              "name": "targetOUSGPercent",
              "type": "uint256"
            },
            {
              "internalType": "uint256",
              "name": "targetUSDYPercent",
              "type": "uint256"
            },
            {
              "internalType": "uint256",
              "name": "rebalanceThreshold",
              "type": "uint256"
            },
            {
              "internalType": "uint256",
              "name": "maxSlippage",
              "type": "uint256"
            },
            {
              "internalType": "bool",
              "name": "automationEnabled",
              "type": "bool"
            }
          ],
          "internalType": "struct AITreasuryManager.RebalanceParams",
          "name": "",
          "type": "tuple"
        }
      ],
      "stateMutability": "view",
      "type": "function"
    },
    {
      "inputs": [
        {
          "internalType": "address",
          "name": "user",
          "type": "address"
        }
      ],
      "name": "getTotalPortfolioValue",
      "outputs": [
        {
          "internalType": "uint256",
          "name": "",
          "type": "uint256"
        }
      ],
      "stateMutability": "view",
      "type": "function"
    },
    {
      "inputs": [
        {
          "internalType": "address",
          "name": "user",
          "type": "address"
        }
      ],
      "name": "getUSDCBalance",
      "outputs": [
        {
          "internalType": "uint256",
          "name": "",
          "type": "uint256"
        }
      ],
      "stateMutability": "view",
      "type": "function"
    },
    {
      "inputs": [],
      "name": "getUSDYPrice",
      "outputs": [
        {
          "internalType": "uint256",
          "name": "price",
          "type": "uint256"
        },
        {
          "internalType": "uint256",
          "name": "decimals",
          "type": "uint256"
        }
      ],
      "stateMutability": "view",
      "type": "function"
    },
    {
      "inputs": [
        {
          "internalType": "address",
          "name": "user",
          "type": "address"
        }
      ],
      "name": "getUserAllocation",
      "outputs": [
        {
          "internalType": "uint256",
          "name": "ousgPercent",
          "type": "uint256"
        },
        {
          "internalType": "uint256",
          "name": "usdyPercent",
          "type": "uint256"
        }
      ],
      "stateMutability": "view",
      "type": "function"
    },
    {
      "inputs": [
        {
          "internalType": "address",
          "name": "user",
          "type": "address"
        }
      ],
      "name": "getUserPortfolio",
      "outputs": [
        {
          "components": [
            {
              "internalType": "uint256",
              "name": "usdcDeposited",
              "type": "uint256"
            },
            {
              "internalType": "uint256",
              "name": "ousgBalance",
              "type": "uint256"
            },
            {
              "internalType": "uint256",
              "name": "usdyBalance",
              "type": "uint256"
            },
            {
              "internalType": "uint256",
              "name": "lastUpdateTime",
              "type": "uint256"
            }
          ],
          "internalType": "struct AITreasuryManager.UserPortfolio",
          "name": "",
          "type": "tuple"
        }
      ],
      "stateMutability": "view",
      "type": "function"
    },
    {
      "inputs": [
        {
          "internalType": "address",
          "name": "user",
          "type": "address"
        }
      ],
      "name": "getWithdrawableAmount",
      "outputs": [
        {
          "internalType": "uint256",
          "name": "",
          "type": "uint256"
        }
      ],
      "stateMutability": "view",
      "type": "function"
    },
    {
      "inputs": [
        {
          "internalType": "uint256",
          "name": "maxAge",
          "type": "uint256"
        }
      ],
      "name": "isPriceStale",
      "outputs": [
        {
          "internalType": "bool",
          "name": "ousgStale",
          "type": "bool"
        },
        {
          "internalType": "bool",
          "name": "usdyStale",
          "type": "bool"
        }
      ],
      "stateMutability": "view",
      "type": "function"
    },
    {
      "inputs": [
        {
          "internalType": "address",
          "name": "",
          "type": "address"
        }
      ],
      "name": "lastAutomationExecution",
      "outputs": [
        {
          "internalType": "uint256",
          "name": "",
          "type": "uint256"
        }
      ],
      "stateMutability": "view",
      "type": "function"
    },
    {
      "inputs": [
        {
          "internalType": "uint256",
          "name": "newOUSGPercent",
          "type": "uint256"
        },
        {
          "internalType": "uint256",
          "name": "newUSDYPercent",
          "type": "uint256"
        }
      ],
      "name": "manualRebalance",
      "outputs": [],
      "stateMutability": "nonpayable",
      "type": "function"
    },
    {
      "inputs": [],
      "name": "minimumDeposit",
      "outputs": [
        {
          "internalType": "uint256",
          "name": "",
          "type": "uint256"
        }
      ],
      "stateMutability": "view",
      "type": "function"
    },
    {
      "inputs": [],
      "name": "ousgPoRFeed",
      "outputs": [
        {
          "internalType": "address",
          "name": "",
          "type": "address"
        }
      ],
      "stateMutability": "view",
      "type": "function"
    },
    {
      "inputs": [],
      "name": "ousgPriceFeed",
      "outputs": [
        {
          "internalType": "address",
          "name": "",
          "type": "address"
        }
      ],
      "stateMutability": "view",
      "type": "function"
    },
    {
      "inputs": [],
      "name": "owner",
      "outputs": [
        {
          "internalType": "address",
          "name": "",
          "type": "address"
        }
      ],
      "stateMutability": "view",
      "type": "function"
    },
    {
      "inputs": [],
      "name": "pauseContract",
      "outputs": [],
      "stateMutability": "nonpayable",
      "type": "function"
    },
    {
      "inputs": [],
      "name": "paused",
      "outputs": [
        {
          "internalType": "bool",
          "name": "",
          "type": "bool"
        }
      ],
      "stateMutability": "view",
      "type": "function"
    },
    {
      "inputs": [
        {
          "internalType": "bytes",
          "name": "performData",
          "type": "bytes"
        }
      ],
      "name": "performUpkeep",
      "outputs": [],
      "stateMutability": "nonpayable",
      "type": "function"
    },
    {
      "inputs": [
        {
          "internalType": "address",
          "name": "",
          "type": "address"
        }
      ],
      "name": "portfolios",
      "outputs": [
        {
          "internalType": "uint256",
          "name": "usdcDeposited",
          "type": "uint256"
        },
        {
          "internalType": "uint256",
          "name": "ousgBalance",
          "type": "uint256"
        },
        {
          "internalType": "uint256",
          "name": "usdyBalance",
          "type": "uint256"
        },
        {
          "internalType": "uint256",
          "name": "lastUpdateTime",
          "type": "uint256"
        }
      ],
      "stateMutability": "view",
      "type": "function"
    },
    {
      "inputs": [
        {
          "internalType": "bytes",
          "name": "actionData",
          "type": "bytes"
        }
      ],
      "name": "proposeAdminAction",
      "outputs": [
        {
          "internalType": "uint256",
          "name": "proposalId",
          "type": "uint256"
        }
      ],
      "stateMutability": "nonpayable",
      "type": "function"
    },
    {
      "inputs": [
        {
          "internalType": "address",
          "name": "",
          "type": "address"
        }
      ],
      "name": "rebalanceSettings",
      "outputs": [
        {
          "internalType": "uint256",
          "name": "targetOUSGPercent",
          "type": "uint256"
        },
        {
          "internalType": "uint256",
          "name": "targetUSDYPercent",
          "type": "uint256"
        },
        {
          "internalType": "uint256",
          "name": "rebalanceThreshold",
          "type": "uint256"
        },
        {
          "internalType": "uint256",
          "name": "maxSlippage",
          "type": "uint256"
        },
        {
          "internalType": "bool",
          "name": "automationEnabled",
          "type": "bool"
        }
      ],
      "stateMutability": "view",
      "type": "function"
    },
    {
      "inputs": [
        {
          "internalType": "address",
          "name": "user",
          "type": "address"
        }
      ],
      "name": "registerForAutomation",
      "outputs": [],
      "stateMutability": "nonpayable",
      "type": "function"
    },
    {
      "inputs": [],
      "name": "renounceOwnership",
      "outputs": [],
      "stateMutability": "nonpayable",
      "type": "function"
    },
    {
      "inputs": [],
      "name": "requestEconomicData",
      "outputs": [
        {
          "internalType": "bytes32",
          "name": "requestId",
          "type": "bytes32"
        }
      ],
      "stateMutability": "nonpayable",
      "type": "function"
    },
    {
      "inputs": [
        {
          "internalType": "address",
          "name": "",
          "type": "address"
        }
      ],
      "name": "riskSettings",
      "outputs": [
        {
          "internalType": "uint256",
          "name": "maxDrawdownPercent",
          "type": "uint256"
        },
        {
          "internalType": "uint256",
          "name": "stopLossThreshold",
          "type": "uint256"
        },
        {
          "internalType": "uint256",
          "name": "volatilityLimit",
          "type": "uint256"
        },
        {
          "internalType": "bool",
          "name": "stopLossEnabled",
          "type": "bool"
        }
      ],
      "stateMutability": "view",
      "type": "function"
    },
    {
      "inputs": [
        {
          "internalType": "bool",
          "name": "enabled",
          "type": "bool"
        }
      ],
      "name": "setEmergencyMode",
      "outputs": [],
      "stateMutability": "nonpayable",
      "type": "function"
    },
    {
      "inputs": [
        {
          "internalType": "uint256",
          "name": "size",
          "type": "uint256"
        }
      ],
      "name": "setMaxBatchSize",
      "outputs": [],
      "stateMutability": "nonpayable",
      "type": "function"
    },
    {
      "inputs": [
        {
          "internalType": "uint256",
          "name": "amount",
          "type": "uint256"
        }
      ],
      "name": "setMinimumDeposit",
      "outputs": [],
      "stateMutability": "nonpayable",
      "type": "function"
    },
    {
      "inputs": [
        {
          "internalType": "uint256",
          "name": "threshold",
          "type": "uint256"
        }
      ],
      "name": "setMultiSigThreshold",
      "outputs": [],
      "stateMutability": "nonpayable",
      "type": "function"
    },
    {
      "inputs": [
        {
          "internalType": "address",
          "name": "porFeedAddress",
          "type": "address"
        }
      ],
      "name": "setOUSGPoRFeed",
      "outputs": [],
      "stateMutability": "nonpayable",
      "type": "function"
    },
    {
      "inputs": [
        {
          "internalType": "address",
          "name": "priceFeedAddress",
          "type": "address"
        }
      ],
      "name": "setOUSGPriceFeed",
      "outputs": [],
      "stateMutability": "nonpayable",
      "type": "function"
    },
    {
      "inputs": [
        {
          "components": [
            {
              "internalType": "uint256",
              "name": "targetOUSGPercent",
              "type": "uint256"
            },
            {
              "internalType": "uint256",
              "name": "targetUSDYPercent",
              "type": "uint256"
            },
            {
              "internalType": "uint256",
              "name": "rebalanceThreshold",
              "type": "uint256"
            },
            {
              "internalType": "uint256",
              "name": "maxSlippage",
              "type": "uint256"
            },
            {
              "internalType": "bool",
              "name": "automationEnabled",
              "type": "bool"
            }
          ],
          "internalType": "struct AITreasuryManager.RebalanceParams",
          "name": "params",
          "type": "tuple"
        }
      ],
      "name": "setRebalanceParameters",
      "outputs": [],
      "stateMutability": "nonpayable",
      "type": "function"
    },
    {
      "inputs": [
        {
          "components": [
            {
              "internalType": "uint256",
              "name": "maxDrawdownPercent",
              "type": "uint256"
            },
            {
              "internalType": "uint256",
              "name": "stopLossThreshold",
              "type": "uint256"
            },
            {
              "internalType": "uint256",
              "name": "volatilityLimit",
              "type": "uint256"
            },
            {
              "internalType": "bool",
              "name": "stopLossEnabled",
              "type": "bool"
            }
          ],
          "internalType": "struct AITreasuryManager.RiskParams",
          "name": "params",
          "type": "tuple"
        }
      ],
      "name": "setRiskParameters",
      "outputs": [],
      "stateMutability": "nonpayable",
      "type": "function"
    },
    {
      "inputs": [
        {
          "internalType": "address",
          "name": "usdcAddress",
          "type": "address"
        }
      ],
      "name": "setUSDC",
      "outputs": [],
      "stateMutability": "nonpayable",
      "type": "function"
    },
    {
      "inputs": [
        {
          "internalType": "address",
          "name": "porFeedAddress",
          "type": "address"
        }
      ],
      "name": "setUSDYPoRFeed",
      "outputs": [],
      "stateMutability": "nonpayable",
      "type": "function"
    },
    {
      "inputs": [
        {
          "internalType": "address",
          "name": "priceFeedAddress",
          "type": "address"
        }
      ],
      "name": "setUSDYPriceFeed",
      "outputs": [],
      "stateMutability": "nonpayable",
      "type": "function"
    },
    {
      "inputs": [],
      "name": "totalAssetsUnderManagement",
      "outputs": [
        {
          "internalType": "uint256",
          "name": "",
          "type": "uint256"
        }
      ],
      "stateMutability": "view",
      "type": "function"
    },
    {
      "inputs": [
        {
          "internalType": "address",
          "name": "newOwner",
          "type": "address"
        }
      ],
      "name": "transferOwnership",
      "outputs": [],
      "stateMutability": "nonpayable",
      "type": "function"
    },
    {
      "inputs": [
        {
          "internalType": "address",
          "name": "user",
          "type": "address"
        }
      ],
      "name": "triggerStopLoss",
      "outputs": [],
      "stateMutability": "nonpayable",
      "type": "function"
    },
    {
      "inputs": [],
      "name": "unpauseContract",
      "outputs": [],
      "stateMutability": "nonpayable",
      "type": "function"
    },
    {
      "inputs": [
        {
          "internalType": "address",
          "name": "user",
          "type": "address"
        }
      ],
      "name": "unregisterFromAutomation",
      "outputs": [],
      "stateMutability": "nonpayable",
      "type": "function"
    },
    {
      "inputs": [
        {
          "internalType": "address",
          "name": "newOwner",
          "type": "address"
        }
      ],
      "name": "updateOwner",
      "outputs": [],
      "stateMutability": "nonpayable",
      "type": "function"
    },
    {
      "inputs": [],
      "name": "usdc",
      "outputs": [
        {
          "internalType": "contract IERC20",
          "name": "",
          "type": "address"
        }
      ],
      "stateMutability": "view",
      "type": "function"
    },
    {
      "inputs": [
        {
          "internalType": "address",
          "name": "",
          "type": "address"
        }
      ],
      "name": "usdcBalance",
      "outputs": [
        {
          "internalType": "uint256",
          "name": "",
          "type": "uint256"
        }
      ],
      "stateMutability": "view",
      "type": "function"
    },
    {
      "inputs": [],
      "name": "usdyPoRFeed",
      "outputs": [
        {
          "internalType": "address",
          "name": "",
          "type": "address"
        }
      ],
      "stateMutability": "view",
      "type": "function"
    },
    {
      "inputs": [],
      "name": "usdyPriceFeed",
      "outputs": [
        {
          "internalType": "address",
          "name": "",
          "type": "address"
        }
      ],
      "stateMutability": "view",
      "type": "function"
    },
    {
      "inputs": [],
      "name": "verifyOUSGReserves",
      "outputs": [
        {
          "internalType": "bool",
          "name": "verified",
          "type": "bool"
        },
        {
          "internalType": "uint256",
          "name": "backingRatio",
          "type": "uint256"
        }
      ],
      "stateMutability": "view",
      "type": "function"
    },
    {
      "inputs": [],
      "name": "verifyUSDYReserves",
      "outputs": [
        {
          "internalType": "bool",
          "name": "verified",
          "type": "bool"
        },
        {
          "internalType": "uint256",
          "name": "backingRatio",
          "type": "uint256"
        }
      ],
      "stateMutability": "view",
      "type": "function"
    },
    {
      "inputs": [
        {
          "internalType": "uint256",
          "name": "amount",
          "type": "uint256"
        }
      ],
      "name": "withdrawUSDC",
      "outputs": [],
      "stateMutability": "nonpayable",
      "type": "function"
    }
  ],
  "bytecode": "0x608060405234801561001057600080fd5b50336001600081905550600073ffffffffffffffffffffffffffffffffffffffff168173ffffffffffffffffffffffffffffffffffffffff160361008c5760006040517f1e4fbdf700000000000000000000000000000000000000000000000000000000815260040161008391906101a5565b60405180910390fd5b61009b816100a160201b60201c565b506101c0565b600060018054906101000a900473ffffffffffffffffffffffffffffffffffffffff169050816001806101000a81548173ffffffffffffffffffffffffffffffffffffffff021916908373ffffffffffffffffffffffffffffffffffffffff1602179055508173ffffffffffffffffffffffffffffffffffffffff168173ffffffffffffffffffffffffffffffffffffffff167f8be0079c531659141344cd1fd0a4f28419497f9722a3daafe3b4186f6b6457e060405160405180910390a35050565b600073ffffffffffffffffffffffffffffffffffffffff82169050919050565b600061018f82610164565b9050919050565b61019f81610184565b82525050565b60006020820190506101ba6000830184610196565b92915050565b6147b8806101cf6000396000f3fe608060405234801561001057600080fd5b506004361061043e5760003560e01c8063864a6a1811610236578063d537f51c1161013b578063e7a014d9116100c3578063f688bcfb11610087578063f688bcfb14610d5b578063f7f29bff14610d77578063faec6a5514610da8578063fdd478d914610dc6578063ff0fec6c14610df75761043e565b8063e7a014d914610ca1578063f13ce30514610cbd578063f22ac6f114610cdb578063f2fde38b14610d0f578063f677717514610d2b5761043e565b8063db4e3ec81161010a578063db4e3ec814610bd5578063db81f99b14610c06578063e566a8fc14610c22578063e5e8421614610c55578063e78ec42e14610c855761043e565b8063d537f51c14610b4a578063d8daff3114610b6b578063d9da0e7014610b9b578063db2e21bc14610bcb5761043e565b8063ae8cb720116101be578063b920ade21161018d578063b920ade214610aa2578063be32b3f814610ad3578063c020f9b714610aef578063d43efb1214610b0d578063d4ac98fd14610b2c5761043e565b8063ae8cb72014610a1b578063b26686b714610a4c578063b33712c514610a7c578063b3e089a214610a865761043e565b806398951b561161020557806398951b561461095f5780639a1c91e51461097b5780639a1ffd2414610997578063a148a6c4146109b6578063aa369f83146109ea5761043e565b8063864a6a18146108eb578063880cdc31146109075780638a67456a146109235780638da5cb5b146109415761043e565b806343553b1411610347578063636bfbab116102cf5780636e04ff0d116102935780636e04ff0d14610843578063715018a6146108745780637baab3da1461087e5780637c132a1b146108b157806384535b2f146108cf5761043e565b8063636bfbab1461079b578063649e4c61146107b957806368024717146107d75780636b740af8146108075780636d3261ba146108255761043e565b806356ad42911161031657806356ad42911461071f5780635c975abb1461073b5780635d843bb01461075957806360d3ef951461077557806362fc885f146107915761043e565b806343553b14146106aa578063439766ce146106da5780634585e33b146106e457806351c5f073146107005761043e565b80631edb27e9116103ca5780632d59d073116103995780632d59d073146106195780632e0618711461063557806339bbb3bb146106545780633aa33267146106705780633e413bee1461068c5761043e565b80631edb27e91461057e57806327648abc146105ae57806329f4ca2c146105e15780632b26a6bf146105fd5761043e565b80630d588e18116104115780630d588e18146104ca5780630d61b519146104e657806310684667146105025780631863dc6d146105325780631d1a1e611461054e5761043e565b806302244b3b1461044357806303414b2b1461045f5780630cb4b0991461048f5780630cee949e146104ae575b600080fd5b61045d60048036038101906104589190612ece565b610e13565b005b61047960048036038101906104749190612ece565b610e1e565b6040516104869190612f14565b60405180910390f35b610497610e25565b6040516104a5929190612f2f565b60405180910390f35b6104c860048036038101906104c39190612fc4565b61101a565b005b6104e460048036038101906104df9190612ece565b611020565b005b61050060048036038101906104fb9190613057565b61106c565b005b61051c60048036038101906105179190612ece565b61106f565b6040516105299190612f14565b60405180910390f35b61054c60048036038101906105479190612ece565b611087565b005b610568600480360381019061056391906130e9565b611131565b6040516105759190612f14565b60405180910390f35b61059860048036038101906105939190612ece565b611139565b6040516105a5919061319a565b60405180910390f35b6105c860048036038101906105c39190612ece565b6111ba565b6040516105d894939291906131d0565b60405180910390f35b6105fb60048036038101906105f69190612ece565b6111f7565b005b61061760048036038101906106129190613057565b611243565b005b610633600480360381019061062e9190612ece565b61124e565b005b61063d61133c565b60405161064b929190612f2f565b60405180910390f35b61066e6004803603810190610669919061334a565b611537565b005b61068a60048036038101906106859190612ece565b6115bb565b005b610694611607565b6040516106a191906133d6565b60405180910390f35b6106c460048036038101906106bf9190612ece565b61162d565b6040516106d19190613468565b60405180910390f35b6106e26116c9565b005b6106fe60048036038101906106f99190613538565b6116db565b005b6107086116de565b604051610716929190613581565b60405180910390f35b61073960048036038101906107349190613636565b61186b565b005b6107436118f9565b6040516107509190613663565b60405180910390f35b610773600480360381019061076e91906136d4565b611910565b005b61078f600480360381019061078a9190613721565b611914565b005b610799611918565b005b6107a361191a565b6040516107b09190612f14565b60405180910390f35b6107c1611920565b6040516107ce919061381f565b60405180910390f35b6107f160048036038101906107ec9190612ece565b611925565b6040516107fe9190612f14565b60405180910390f35b61080f61196e565b60405161081c9190613850565b60405180910390f35b61082d611994565b60405161083a9190612f14565b60405180910390f35b61085d600480360381019061085891906130e9565b61199e565b60405161086b9291906138ea565b60405180910390f35b61087c6119a9565b005b61089860048036038101906108939190612ece565b6119bd565b6040516108a8949392919061391a565b60405180910390f35b6108b96119ed565b6040516108c69190613850565b60405180910390f35b6108e960048036038101906108e49190613057565b611a13565b005b61090560048036038101906109009190612ece565b611a16565b005b610921600480360381019061091c9190612ece565b611a19565b005b61092b611a2d565b6040516109389190613663565b60405180910390f35b610949611a40565b6040516109569190613850565b60405180910390f35b61097960048036038101906109749190613057565b611a68565b005b61099560048036038101906109909190613a00565b611a6b565b005b61099f611acc565b6040516109ad929190612f2f565b60405180910390f35b6109d060048036038101906109cb9190612ece565b611cc1565b6040516109e1959493929190613a49565b60405180910390f35b610a0460048036038101906109ff9190612ece565b611d04565b604051610a12929190612f2f565b60405180910390f35b610a356004803603810190610a309190612ece565b611d0c565b604051610a43929190613581565b60405180910390f35b610a666004803603810190610a619190612ece565b611da5565b604051610a739190613663565b60405180910390f35b610a84611dc5565b005b610aa06004803603810190610a9b9190612ece565b611dd7565b005b610abc6004803603810190610ab79190612ece565b611e92565b604051610aca929190612f2f565b60405180910390f35b610aed6004803603810190610ae89190613a9c565b611e9a565b005b610af7611ea5565b604051610b049190612f14565b60405180910390f35b610b15611eab565b604051610b23929190613581565b60405180910390f35b610b34612038565b604051610b419190613850565b60405180910390f35b610b5261205e565b604051610b629493929190613ad8565b60405180910390f35b610b856004803603810190610b809190612ece565b612069565b604051610b929190612f14565b60405180910390f35b610bb56004803603810190610bb09190612ece565b612081565b604051610bc29190612f14565b60405180910390f35b610bd3612088565b005b610bef6004803603810190610bea9190613057565b61209a565b604051610bfd929190613b1d565b60405180910390f35b610c206004803603810190610c1b9190613057565b6122bb565b005b610c3c6004803603810190610c379190612ece565b6124cd565b604051610c4c9493929190613b9b565b60405180910390f35b610c6f6004803603810190610c6a9190613be7565b6124db565b604051610c7c9190613dcb565b60405180910390f35b610c9f6004803603810190610c9a9190613057565b6124e4565b005b610cbb6004803603810190610cb69190612ece565b6124f6565b005b610cc5612509565b604051610cd29190613850565b60405180910390f35b610cf56004803603810190610cf09190613057565b61252f565b604051610d06959493929190613dfc565b60405180910390f35b610d296004803603810190610d249190612ece565b61261d565b005b610d456004803603810190610d409190612ece565b6126a3565b604051610d529190612f14565b60405180910390f35b610d756004803603810190610d709190613057565b6126aa565b005b610d916004803603810190610d8c9190612ece565b612914565b604051610d9f929190613e56565b60405180910390f35b610db061291d565b604051610dbd9190613e86565b60405180910390f35b610de06004803603810190610ddb9190613ea1565b612922565b604051610dee929190612f2f565b60405180910390f35b610e116004803603810190610e0c9190612ece565b61292c565b005b610e1b612978565b50565b6000919050565b600080600073ffffffffffffffffffffffffffffffffffffffff16600b60009054906101000a900473ffffffffffffffffffffffffffffffffffffffff1673ffffffffffffffffffffffffffffffffffffffff1603610eb9576040517f08c379a0000000000000000000000000000000000000000000000000000000008152600401610eb090613f2d565b60405180910390fd5b6000600b60009054906101000a900473ffffffffffffffffffffffffffffffffffffffff1690506000808273ffffffffffffffffffffffffffffffffffffffff1663feaf968c6040518163ffffffff1660e01b815260040160a060405180830381865afa158015610f2e573d6000803e3d6000fd5b505050506040513d601f19601f82011682018060405250810190610f529190613fb9565b5093505092505060008213610f9c576040517f08c379a0000000000000000000000000000000000000000000000000000000008152600401610f9390614080565b60405180910390fd5b8194508273ffffffffffffffffffffffffffffffffffffffff1663313ce5676040518163ffffffff1660e01b8152600401602060405180830381865afa158015610fea573d6000803e3d6000fd5b505050506040513d601f19601f8201168201806040525081019061100e91906140d9565b60ff1693505050509091565b50505050565b611028612978565b80600c60006101000a81548173ffffffffffffffffffffffffffffffffffffffff021916908373ffffffffffffffffffffffffffffffffffffffff16021790555050565b50565b60106020528060005260406000206000915090505481565b6000600560008373ffffffffffffffffffffffffffffffffffffffff1673ffffffffffffffffffffffffffffffffffffffff16815260200190815260200160002060006101000a81548160ff0219169083151502179055508073ffffffffffffffffffffffffffffffffffffffff167fbb7666bd2763ab1c4d76290353f9e4b9a0437d691ed922e5ccd356ea5e18977260006040516111269190613663565b60405180910390a250565b600092915050565b611141612e03565b600260008373ffffffffffffffffffffffffffffffffffffffff1673ffffffffffffffffffffffffffffffffffffffff1681526020019081526020016000206040518060800160405290816000820154815260200160018201548152602001600282015481526020016003820154815250509050919050565b60046020528060005260406000206000915090508060000154908060010154908060020154908060030160009054906101000a900460ff16905084565b6111ff612978565b80600e60006101000a81548173ffffffffffffffffffffffffffffffffffffffff021916908373ffffffffffffffffffffffffffffffffffffffff16021790555050565b61124b612978565b50565b6001600560008373ffffffffffffffffffffffffffffffffffffffff1673ffffffffffffffffffffffffffffffffffffffff16815260200190815260200160002060006101000a81548160ff02191690831515021790555042600660008373ffffffffffffffffffffffffffffffffffffffff1673ffffffffffffffffffffffffffffffffffffffff168152602001908152602001600020819055508073ffffffffffffffffffffffffffffffffffffffff167fbb7666bd2763ab1c4d76290353f9e4b9a0437d691ed922e5ccd356ea5e18977260016040516113319190613663565b60405180910390a250565b600080600073ffffffffffffffffffffffffffffffffffffffff16600b60009054906101000a900473ffffffffffffffffffffffffffffffffffffffff1673ffffffffffffffffffffffffffffffffffffffff1614611439576000600b60009054906101000a900473ffffffffffffffffffffffffffffffffffffffff16905060008173ffffffffffffffffffffffffffffffffffffffff1663feaf968c6040518163ffffffff1660e01b815260040160a060405180830381865afa158015611409573d6000803e3d6000fd5b505050506040513d601f19601f8201168201806040525081019061142d9190613fb9565b50935050505080935050505b600073ffffffffffffffffffffffffffffffffffffffff16600c60009054906101000a900473ffffffffffffffffffffffffffffffffffffffff1673ffffffffffffffffffffffffffffffffffffffff1614611533576000600c60009054906101000a900473ffffffffffffffffffffffffffffffffffffffff16905060008173ffffffffffffffffffffffffffffffffffffffff1663feaf968c6040518163ffffffff1660e01b815260040160a060405180830381865afa158015611503573d6000803e3d6000fd5b505050506040513d601f19601f820116820180604052508101906115279190613fb9565b50935050505080925050505b9091565b80600460003373ffffffffffffffffffffffffffffffffffffffff1673ffffffffffffffffffffffffffffffffffffffff16815260200190815260200160002060008201518160000155602082015181600101556040820151816002015560608201518160030160006101000a81548160ff02191690831515021790555090505050565b6115c3612978565b80600d60006101000a81548173ffffffffffffffffffffffffffffffffffffffff021916908373ffffffffffffffffffffffffffffffffffffffff16021790555050565b600f60009054906101000a900473ffffffffffffffffffffffffffffffffffffffff1681565b611635612e2b565b600360008373ffffffffffffffffffffffffffffffffffffffff1673ffffffffffffffffffffffffffffffffffffffff1681526020019081526020016000206040518060a0016040529081600082015481526020016001820154815260200160028201548152602001600382015481526020016004820160009054906101000a900460ff1615151515815250509050919050565b6116d1612978565b6116d96129ff565b565b50565b600080600073ffffffffffffffffffffffffffffffffffffffff16600e60009054906101000a900473ffffffffffffffffffffffffffffffffffffffff1673ffffffffffffffffffffffffffffffffffffffff1603611772576040517f08c379a000000000000000000000000000000000000000000000000000000000815260040161176990614152565b60405180910390fd5b6000600e60009054906101000a900473ffffffffffffffffffffffffffffffffffffffff16905060008173ffffffffffffffffffffffffffffffffffffffff1663feaf968c6040518163ffffffff1660e01b815260040160a060405180830381865afa1580156117e6573d6000803e3d6000fd5b505050506040513d601f19601f8201168201806040525081019061180a9190613fb9565b5050509150506000811215611854576040517f08c379a000000000000000000000000000000000000000000000000000000000815260040161184b906141be565b60405180910390fd5b809250670de0b6b3a7640000831015935050509091565b80600360003373ffffffffffffffffffffffffffffffffffffffff1673ffffffffffffffffffffffffffffffffffffffff1681526020019081526020016000206000820151816000015560208201518160010155604082015181600201556060820151816003015560808201518160040160006101000a81548160ff02191690831515021790555090505050565b6000600160009054906101000a900460ff16905090565b5050565b5050565b565b600a5481565b606090565b6000601060008373ffffffffffffffffffffffffffffffffffffffff1673ffffffffffffffffffffffffffffffffffffffff168152602001908152602001600020549050919050565b600b60009054906101000a900473ffffffffffffffffffffffffffffffffffffffff1681565b6000600854905090565b600060609250929050565b6119b1612978565b6119bb6000612a61565b565b60026020528060005260406000206000915090508060000154908060010154908060020154908060030154905084565b600d60009054906101000a900473ffffffffffffffffffffffffffffffffffffffff1681565b50565b50565b611a21612978565b611a2a8161261d565b50565b600960009054906101000a900460ff1681565b600060018054906101000a900473ffffffffffffffffffffffffffffffffffffffff16905090565b50565b611a73612978565b611a7b6129ff565b3373ffffffffffffffffffffffffffffffffffffffff167f967fe703715741b15c23d64a0433aa0eeb384e3076160b08ebc6e18213b918c482604051611ac1919061422a565b60405180910390a250565b600080600073ffffffffffffffffffffffffffffffffffffffff16600c60009054906101000a900473ffffffffffffffffffffffffffffffffffffffff1673ffffffffffffffffffffffffffffffffffffffff1603611b60576040517f08c379a0000000000000000000000000000000000000000000000000000000008152600401611b57906142ab565b60405180910390fd5b6000600c60009054906101000a900473ffffffffffffffffffffffffffffffffffffffff1690506000808273ffffffffffffffffffffffffffffffffffffffff1663feaf968c6040518163ffffffff1660e01b815260040160a060405180830381865afa158015611bd5573d6000803e3d6000fd5b505050506040513d601f19601f82011682018060405250810190611bf99190613fb9565b5093505092505060008213611c43576040517f08c379a0000000000000000000000000000000000000000000000000000000008152600401611c3a90614317565b60405180910390fd5b8194508273ffffffffffffffffffffffffffffffffffffffff1663313ce5676040518163ffffffff1660e01b8152600401602060405180830381865afa158015611c91573d6000803e3d6000fd5b505050506040513d601f19601f82011682018060405250810190611cb591906140d9565b60ff1693505050509091565b60036020528060005260406000206000915090508060000154908060010154908060020154908060030154908060040160009054906101000a900460ff16905085565b600080915091565b600080600560008473ffffffffffffffffffffffffffffffffffffffff1673ffffffffffffffffffffffffffffffffffffffff16815260200190815260200160002060009054906101000a900460ff16600660008573ffffffffffffffffffffffffffffffffffffffff1673ffffffffffffffffffffffffffffffffffffffff1681526020019081526020016000205491509150915091565b60056020528060005260406000206000915054906101000a900460ff1681565b611dcd612978565b611dd5612b24565b565b611ddf612978565b600073ffffffffffffffffffffffffffffffffffffffff168173ffffffffffffffffffffffffffffffffffffffff1603611e4e576040517f08c379a0000000000000000000000000000000000000000000000000000000008152600401611e4590614383565b60405180910390fd5b80600f60006101000a81548173ffffffffffffffffffffffffffffffffffffffff021916908373ffffffffffffffffffffffffffffffffffffffff16021790555050565b600080915091565b611ea2612978565b50565b60085481565b600080600073ffffffffffffffffffffffffffffffffffffffff16600d60009054906101000a900473ffffffffffffffffffffffffffffffffffffffff1673ffffffffffffffffffffffffffffffffffffffff1603611f3f576040517f08c379a0000000000000000000000000000000000000000000000000000000008152600401611f36906143ef565b60405180910390fd5b6000600d60009054906101000a900473ffffffffffffffffffffffffffffffffffffffff16905060008173ffffffffffffffffffffffffffffffffffffffff1663feaf968c6040518163ffffffff1660e01b815260040160a060405180830381865afa158015611fb3573d6000803e3d6000fd5b505050506040513d601f19601f82011682018060405250810190611fd79190613fb9565b5050509150506000811215612021576040517f08c379a00000000000000000000000000000000000000000000000000000000081526004016120189061445b565b60405180910390fd5b809250670de0b6b3a7640000831015935050509091565b600e60009054906101000a900473ffffffffffffffffffffffffffffffffffffffff1681565b600080600080919293565b60066020528060005260406000206000915090505481565b6000919050565b612090612b87565b612098612bcd565b565b600080600080600073ffffffffffffffffffffffffffffffffffffffff16600b60009054906101000a900473ffffffffffffffffffffffffffffffffffffffff1673ffffffffffffffffffffffffffffffffffffffff161461219a576000600b60009054906101000a900473ffffffffffffffffffffffffffffffffffffffff16905060008173ffffffffffffffffffffffffffffffffffffffff1663feaf968c6040518163ffffffff1660e01b815260040160a060405180830381865afa15801561216a573d6000803e3d6000fd5b505050506040513d601f19601f8201168201806040525081019061218e9190613fb9565b50935050505080935050505b600073ffffffffffffffffffffffffffffffffffffffff16600c60009054906101000a900473ffffffffffffffffffffffffffffffffffffffff1673ffffffffffffffffffffffffffffffffffffffff1614612294576000600c60009054906101000a900473ffffffffffffffffffffffffffffffffffffffff16905060008173ffffffffffffffffffffffffffffffffffffffff1663feaf968c6040518163ffffffff1660e01b815260040160a060405180830381865afa158015612264573d6000803e3d6000fd5b505050506040513d601f19601f820116820180604052508101906122889190613fb9565b50935050505080925050505b8482426122a191906144aa565b1193508481426122b191906144aa565b1192505050915091565b6122c3612b87565b6122cb612bd7565b6000811161230e576040517f08c379a00000000000000000000000000000000000000000000000000000000081526004016123059061452a565b60405180910390fd5b80601060003373ffffffffffffffffffffffffffffffffffffffff1673ffffffffffffffffffffffffffffffffffffffff168152602001908152602001600020541015612390576040517f08c379a000000000000000000000000000000000000000000000000000000000815260040161238790614596565b60405180910390fd5b80601060003373ffffffffffffffffffffffffffffffffffffffff1673ffffffffffffffffffffffffffffffffffffffff16815260200190815260200160002060008282546123df91906144aa565b925050819055506124333382600f60009054906101000a900473ffffffffffffffffffffffffffffffffffffffff1673ffffffffffffffffffffffffffffffffffffffff16612c189092919063ffffffff16565b3373ffffffffffffffffffffffffffffffffffffffff167fdf273cb619d95419a9cd0ec88123a0538c85064229baa6363788f743fff90deb82601060003373ffffffffffffffffffffffffffffffffffffffff1673ffffffffffffffffffffffffffffffffffffffff168152602001908152602001600020546040516124ba929190612f2f565b60405180910390a26124ca612bcd565b50565b600060606000809193509193565b60609392505050565b6124ec612978565b80600a8190555050565b6124fe612b87565b612506612bcd565b50565b600c60009054906101000a900473ffffffffffffffffffffffffffffffffffffffff1681565b6007818154811061253f57600080fd5b90600052602060002090600502016000915090508060000160009054906101000a900473ffffffffffffffffffffffffffffffffffffffff1690806001018054612588906145e5565b80601f01602080910402602001604051908101604052809291908181526020018280546125b4906145e5565b80156126015780601f106125d657610100808354040283529160200191612601565b820191906000526020600020905b8154815290600101906020018083116125e457829003601f168201915b5050505050908060020154908060030154908060040154905085565b612625612978565b600073ffffffffffffffffffffffffffffffffffffffff168173ffffffffffffffffffffffffffffffffffffffff16036126975760006040517f1e4fbdf700000000000000000000000000000000000000000000000000000000815260040161268e9190613850565b60405180910390fd5b6126a081612a61565b50565b6000919050565b6126b2612b87565b6126ba612bd7565b80600a54811015612700576040517f08c379a00000000000000000000000000000000000000000000000000000000081526004016126f790614662565b60405180910390fd5b60008211612743576040517f08c379a000000000000000000000000000000000000000000000000000000000815260040161273a9061452a565b60405180910390fd5b600073ffffffffffffffffffffffffffffffffffffffff16600f60009054906101000a900473ffffffffffffffffffffffffffffffffffffffff1673ffffffffffffffffffffffffffffffffffffffff16036127d4576040517f08c379a00000000000000000000000000000000000000000000000000000000081526004016127cb906146ce565b60405180910390fd5b612823333084600f60009054906101000a900473ffffffffffffffffffffffffffffffffffffffff1673ffffffffffffffffffffffffffffffffffffffff16612c97909392919063ffffffff16565b81601060003373ffffffffffffffffffffffffffffffffffffffff1673ffffffffffffffffffffffffffffffffffffffff168152602001908152602001600020600082825461287291906146ee565b925050819055503373ffffffffffffffffffffffffffffffffffffffff167f90890809c654f11d6e72a28fa60149770a0d11ec6c92319d6ceb2bb0a4ea1a1583601060003373ffffffffffffffffffffffffffffffffffffffff1673ffffffffffffffffffffffffffffffffffffffff16815260200190815260200160002054604051612900929190612f2f565b60405180910390a250612911612bcd565b50565b60006060915091565b600090565b6000809250929050565b612934612978565b80600b60006101000a81548173ffffffffffffffffffffffffffffffffffffffff021916908373ffffffffffffffffffffffffffffffffffffffff16021790555050565b612980612d19565b73ffffffffffffffffffffffffffffffffffffffff1661299e611a40565b73ffffffffffffffffffffffffffffffffffffffff16146129fd576129c1612d19565b6040517f118cdaa70000000000000000000000000000000000000000000000000000000081526004016129f49190613850565b60405180910390fd5b565b612a07612bd7565b60018060006101000a81548160ff0219169083151502179055507f62e78cea01bee320cd4e420270b5ea74000d11b0c9f74754ebdbfc544b05a258612a4a612d19565b604051612a579190613850565b60405180910390a1565b600060018054906101000a900473ffffffffffffffffffffffffffffffffffffffff169050816001806101000a81548173ffffffffffffffffffffffffffffffffffffffff021916908373ffffffffffffffffffffffffffffffffffffffff1602179055508173ffffffffffffffffffffffffffffffffffffffff168173ffffffffffffffffffffffffffffffffffffffff167f8be0079c531659141344cd1fd0a4f28419497f9722a3daafe3b4186f6b6457e060405160405180910390a35050565b612b2c612d21565b6000600160006101000a81548160ff0219169083151502179055507f5db9ee0a495bf2e6ff9c91a7834c1ba4fdd244a5e8aa4e537bd38aeae4b073aa612b70612d19565b604051612b7d9190613850565b60405180910390a1565b600260005403612bc3576040517f3ee5aeb500000000000000000000000000000000000000000000000000000000815260040160405180910390fd5b6002600081905550565b6001600081905550565b612bdf6118f9565b15612c16576040517fd93c066500000000000000000000000000000000000000000000000000000000815260040160405180910390fd5b565b612c92838473ffffffffffffffffffffffffffffffffffffffff1663a9059cbb8585604051602401612c4b929190614722565b604051602081830303815290604052915060e01b6020820180517bffffffffffffffffffffffffffffffffffffffffffffffffffffffff8381831617835250505050612d61565b505050565b612d13848573ffffffffffffffffffffffffffffffffffffffff166323b872dd868686604051602401612ccc9392919061474b565b604051602081830303815290604052915060e01b6020820180517bffffffffffffffffffffffffffffffffffffffffffffffffffffffff8381831617835250505050612d61565b50505050565b600033905090565b612d296118f9565b612d5f576040517f8dfc202b00000000000000000000000000000000000000000000000000000000815260040160405180910390fd5b565b600080602060008451602086016000885af180612d84576040513d6000823e3d81fd5b3d925060005191505060008214612d9f576001811415612dbb565b60008473ffffffffffffffffffffffffffffffffffffffff163b145b15612dfd57836040517f5274afe7000000000000000000000000000000000000000000000000000000008152600401612df49190613850565b60405180910390fd5b50505050565b6040518060800160405280600081526020016000815260200160008152602001600081525090565b6040518060a00160405280600081526020016000815260200160008152602001600081526020016000151581525090565b6000604051905090565b600080fd5b600080fd5b600073ffffffffffffffffffffffffffffffffffffffff82169050919050565b6000612e9b82612e70565b9050919050565b612eab81612e90565b8114612eb657600080fd5b50565b600081359050612ec881612ea2565b92915050565b600060208284031215612ee457612ee3612e66565b5b6000612ef284828501612eb9565b91505092915050565b6000819050919050565b612f0e81612efb565b82525050565b6000602082019050612f296000830184612f05565b92915050565b6000604082019050612f446000830185612f05565b612f516020830184612f05565b9392505050565b6000819050919050565b612f6b81612f58565b8114612f7657600080fd5b50565b600081359050612f8881612f62565b92915050565b6000819050919050565b612fa181612f8e565b8114612fac57600080fd5b50565b600081359050612fbe81612f98565b92915050565b60008060008060808587031215612fde57612fdd612e66565b5b6000612fec87828801612f79565b9450506020612ffd87828801612faf565b935050604061300e87828801612faf565b925050606061301f87828801612faf565b91505092959194509250565b61303481612efb565b811461303f57600080fd5b50565b6000813590506130518161302b565b92915050565b60006020828403121561306d5761306c612e66565b5b600061307b84828501613042565b91505092915050565b600080fd5b600080fd5b600080fd5b60008083601f8401126130a9576130a8613084565b5b8235905067ffffffffffffffff8111156130c6576130c5613089565b5b6020830191508360018202830111156130e2576130e161308e565b5b9250929050565b60008060208385031215613100576130ff612e66565b5b600083013567ffffffffffffffff81111561311e5761311d612e6b565b5b61312a85828601613093565b92509250509250929050565b61313f81612efb565b82525050565b60808201600082015161315b6000850182613136565b50602082015161316e6020850182613136565b5060408201516131816040850182613136565b5060608201516131946060850182613136565b50505050565b60006080820190506131af6000830184613145565b92915050565b60008115159050919050565b6131ca816131b5565b82525050565b60006080820190506131e56000830187612f05565b6131f26020830186612f05565b6131ff6040830185612f05565b61320c60608301846131c1565b95945050505050565b600080fd5b6000601f19601f8301169050919050565b7f4e487b7100000000000000000000000000000000000000000000000000000000600052604160045260246000fd5b6132638261321a565b810181811067ffffffffffffffff821117156132825761328161322b565b5b80604052505050565b6000613295612e5c565b90506132a1828261325a565b919050565b6132af816131b5565b81146132ba57600080fd5b50565b6000813590506132cc816132a6565b92915050565b6000608082840312156132e8576132e7613215565b5b6132f2608061328b565b9050600061330284828501613042565b600083015250602061331684828501613042565b602083015250604061332a84828501613042565b604083015250606061333e848285016132bd565b60608301525092915050565b6000608082840312156133605761335f612e66565b5b600061336e848285016132d2565b91505092915050565b6000819050919050565b600061339c61339761339284612e70565b613377565b612e70565b9050919050565b60006133ae82613381565b9050919050565b60006133c0826133a3565b9050919050565b6133d0816133b5565b82525050565b60006020820190506133eb60008301846133c7565b92915050565b6133fa816131b5565b82525050565b60a0820160008201516134166000850182613136565b5060208201516134296020850182613136565b50604082015161343c6040850182613136565b50606082015161344f6060850182613136565b50608082015161346260808501826133f1565b50505050565b600060a08201905061347d6000830184613400565b92915050565b600080fd5b600067ffffffffffffffff8211156134a3576134a261322b565b5b6134ac8261321a565b9050602081019050919050565b82818337600083830152505050565b60006134db6134d684613488565b61328b565b9050828152602081018484840111156134f7576134f6613483565b5b6135028482856134b9565b509392505050565b600082601f83011261351f5761351e613084565b5b813561352f8482602086016134c8565b91505092915050565b60006020828403121561354e5761354d612e66565b5b600082013567ffffffffffffffff81111561356c5761356b612e6b565b5b6135788482850161350a565b91505092915050565b600060408201905061359660008301856131c1565b6135a36020830184612f05565b9392505050565b600060a082840312156135c0576135bf613215565b5b6135ca60a061328b565b905060006135da84828501613042565b60008301525060206135ee84828501613042565b602083015250604061360284828501613042565b604083015250606061361684828501613042565b606083015250608061362a848285016132bd565b60808301525092915050565b600060a0828403121561364c5761364b612e66565b5b600061365a848285016135aa565b91505092915050565b600060208201905061367860008301846131c1565b92915050565b60008083601f84011261369457613693613084565b5b8235905067ffffffffffffffff8111156136b1576136b0613089565b5b6020830191508360208202830111156136cd576136cc61308e565b5b9250929050565b600080602083850312156136eb576136ea612e66565b5b600083013567ffffffffffffffff81111561370957613708612e6b565b5b6137158582860161367e565b92509250509250929050565b6000806040838503121561373857613737612e66565b5b600061374685828601613042565b925050602061375785828601613042565b9150509250929050565b600081519050919050565b600082825260208201905092915050565b6000819050602082019050919050565b61379681612e90565b82525050565b60006137a8838361378d565b60208301905092915050565b6000602082019050919050565b60006137cc82613761565b6137d6818561376c565b93506137e18361377d565b8060005b838110156138125781516137f9888261379c565b9750613804836137b4565b9250506001810190506137e5565b5085935050505092915050565b6000602082019050818103600083015261383981846137c1565b905092915050565b61384a81612e90565b82525050565b60006020820190506138656000830184613841565b92915050565b600081519050919050565b600082825260208201905092915050565b60005b838110156138a557808201518184015260208101905061388a565b60008484015250505050565b60006138bc8261386b565b6138c68185613876565b93506138d6818560208601613887565b6138df8161321a565b840191505092915050565b60006040820190506138ff60008301856131c1565b818103602083015261391181846138b1565b90509392505050565b600060808201905061392f6000830187612f05565b61393c6020830186612f05565b6139496040830185612f05565b6139566060830184612f05565b95945050505050565b600067ffffffffffffffff82111561397a5761397961322b565b5b6139838261321a565b9050602081019050919050565b60006139a361399e8461395f565b61328b565b9050828152602081018484840111156139bf576139be613483565b5b6139ca8482856134b9565b509392505050565b600082601f8301126139e7576139e6613084565b5b81356139f7848260208601613990565b91505092915050565b600060208284031215613a1657613a15612e66565b5b600082013567ffffffffffffffff811115613a3457613a33612e6b565b5b613a40848285016139d2565b91505092915050565b600060a082019050613a5e6000830188612f05565b613a6b6020830187612f05565b613a786040830186612f05565b613a856060830185612f05565b613a9260808301846131c1565b9695505050505050565b600060208284031215613ab257613ab1612e66565b5b6000613ac0848285016132bd565b91505092915050565b613ad281612f8e565b82525050565b6000608082019050613aed6000830187613ac9565b613afa6020830186613ac9565b613b076040830185613ac9565b613b146060830184612f05565b95945050505050565b6000604082019050613b3260008301856131c1565b613b3f60208301846131c1565b9392505050565b600081519050919050565b600082825260208201905092915050565b6000613b6d82613b46565b613b778185613b51565b9350613b87818560208601613887565b613b908161321a565b840191505092915050565b6000608082019050613bb060008301876131c1565b8181036020830152613bc28186613b62565b9050613bd16040830185612f05565b613bde6060830184612f05565b95945050505050565b600080600060608486031215613c0057613bff612e66565b5b6000613c0e86828701612eb9565b9350506020613c1f86828701613042565b9250506040613c3086828701613042565b9150509250925092565b600081519050919050565b600082825260208201905092915050565b6000819050602082019050919050565b600082825260208201905092915050565b6000613c8282613b46565b613c8c8185613c66565b9350613c9c818560208601613887565b613ca58161321a565b840191505092915050565b613cb981612f58565b82525050565b600060a083016000830151613cd7600086018261378d565b5060208301518482036020860152613cef8282613c77565b9150506040830151613d046040860182613136565b506060830151613d176060860182613136565b506080830151613d2a6080860182613cb0565b508091505092915050565b6000613d418383613cbf565b905092915050565b6000602082019050919050565b6000613d6182613c3a565b613d6b8185613c45565b935083602082028501613d7d85613c56565b8060005b85811015613db95784840389528151613d9a8582613d35565b9450613da583613d49565b925060208a01995050600181019050613d81565b50829750879550505050505092915050565b60006020820190508181036000830152613de58184613d56565b905092915050565b613df681612f58565b82525050565b600060a082019050613e116000830188613841565b8181036020830152613e238187613b62565b9050613e326040830186612f05565b613e3f6060830185612f05565b613e4c6080830184613ded565b9695505050505050565b6000604082019050613e6b60008301856131c1565b8181036020830152613e7d8184613b62565b90509392505050565b6000602082019050613e9b6000830184613ded565b92915050565b60008060408385031215613eb857613eb7612e66565b5b6000613ec685828601612eb9565b9250506020613ed785828601613042565b9150509250929050565b7f4f5553472070726963652066656564206e6f7420736574000000000000000000600082015250565b6000613f17601783613b51565b9150613f2282613ee1565b602082019050919050565b60006020820190508181036000830152613f4681613f0a565b9050919050565b600069ffffffffffffffffffff82169050919050565b613f6c81613f4d565b8114613f7757600080fd5b50565b600081519050613f8981613f63565b92915050565b600081519050613f9e81612f98565b92915050565b600081519050613fb38161302b565b92915050565b600080600080600060a08688031215613fd557613fd4612e66565b5b6000613fe388828901613f7a565b9550506020613ff488828901613f8f565b945050604061400588828901613fa4565b935050606061401688828901613fa4565b925050608061402788828901613f7a565b9150509295509295909350565b7f496e76616c6964204f5553472070726963650000000000000000000000000000600082015250565b600061406a601283613b51565b915061407582614034565b602082019050919050565b600060208201905081810360008301526140998161405d565b9050919050565b600060ff82169050919050565b6140b6816140a0565b81146140c157600080fd5b50565b6000815190506140d3816140ad565b92915050565b6000602082840312156140ef576140ee612e66565b5b60006140fd848285016140c4565b91505092915050565b7f5553445920506f522066656564206e6f74207365740000000000000000000000600082015250565b600061413c601583613b51565b915061414782614106565b602082019050919050565b6000602082019050818103600083015261416b8161412f565b9050919050565b7f496e76616c6964205553445920506f5200000000000000000000000000000000600082015250565b60006141a8601083613b51565b91506141b382614172565b602082019050919050565b600060208201905081810360008301526141d78161419b565b9050919050565b7f456d657267656e63795061757365000000000000000000000000000000000000600082015250565b6000614214600e83613b51565b915061421f826141de565b602082019050919050565b6000604082019050818103600083015261424381614207565b905081810360208301526142578184613b62565b905092915050565b7f555344592070726963652066656564206e6f7420736574000000000000000000600082015250565b6000614295601783613b51565b91506142a08261425f565b602082019050919050565b600060208201905081810360008301526142c481614288565b9050919050565b7f496e76616c696420555344592070726963650000000000000000000000000000600082015250565b6000614301601283613b51565b915061430c826142cb565b602082019050919050565b60006020820190508181036000830152614330816142f4565b9050919050565b7f496e76616c696420555344432061646472657373000000000000000000000000600082015250565b600061436d601483613b51565b915061437882614337565b602082019050919050565b6000602082019050818103600083015261439c81614360565b9050919050565b7f4f55534720506f522066656564206e6f74207365740000000000000000000000600082015250565b60006143d9601583613b51565b91506143e4826143a3565b602082019050919050565b60006020820190508181036000830152614408816143cc565b9050919050565b7f496e76616c6964204f55534720506f5200000000000000000000000000000000600082015250565b6000614445601083613b51565b91506144508261440f565b602082019050919050565b6000602082019050818103600083015261447481614438565b9050919050565b7f4e487b7100000000000000000000000000000000000000000000000000000000600052601160045260246000fd5b60006144b582612efb565b91506144c083612efb565b92508282039050818111156144d8576144d761447b565b5b92915050565b7f416d6f756e74206d757374206265203e20300000000000000000000000000000600082015250565b6000614514601283613b51565b915061451f826144de565b602082019050919050565b6000602082019050818103600083015261454381614507565b9050919050565b7f496e73756666696369656e742062616c616e6365000000000000000000000000600082015250565b6000614580601483613b51565b915061458b8261454a565b602082019050919050565b600060208201905081810360008301526145af81614573565b9050919050565b7f4e487b7100000000000000000000000000000000000000000000000000000000600052602260045260246000fd5b600060028204905060018216806145fd57607f821691505b6020821081036146105761460f6145b6565b5b50919050565b7f416d6f756e742062656c6f77206d696e696d756d000000000000000000000000600082015250565b600061464c601483613b51565b915061465782614616565b602082019050919050565b6000602082019050818103600083015261467b8161463f565b9050919050565b7f55534443206e6f74207365740000000000000000000000000000000000000000600082015250565b60006146b8600c83613b51565b91506146c382614682565b602082019050919050565b600060208201905081810360008301526146e7816146ab565b9050919050565b60006146f982612efb565b915061470483612efb565b925082820190508082111561471c5761471b61447b565b5b92915050565b60006040820190506147376000830185613841565b6147446020830184612f05565b9392505050565b60006060820190506147606000830186613841565b61476d6020830185613841565b61477a6040830184612f05565b94935050505056fea2646970667358221220c0ace7e246d0e1a113b195d567427995797c789fed684e3cd0b6dd8d26400af864736f6c634300081c0033",
  "linkReferences": {},
  "deployedLinkReferences": {}
}